{
  "contractName": "CasinoRole",
  "abi": [
    {
      "inputs": [],
      "payable": false,
      "stateMutability": "nonpayable",
      "type": "constructor"
    },
    {
      "anonymous": false,
      "inputs": [
        {
          "indexed": true,
          "name": "account",
          "type": "address"
        }
      ],
      "name": "CasinoAdded",
      "type": "event"
    },
    {
      "anonymous": false,
      "inputs": [
        {
          "indexed": true,
          "name": "account",
          "type": "address"
        }
      ],
      "name": "CasinoRemoved",
      "type": "event"
    },
    {
      "constant": true,
      "inputs": [
        {
          "name": "account",
          "type": "address"
        }
      ],
      "name": "isCasino",
      "outputs": [
        {
          "name": "",
          "type": "bool"
        }
      ],
      "payable": false,
      "stateMutability": "view",
      "type": "function"
    },
    {
      "constant": false,
      "inputs": [
        {
          "name": "account",
          "type": "address"
        }
      ],
      "name": "addCasino",
      "outputs": [],
      "payable": false,
      "stateMutability": "nonpayable",
      "type": "function"
    },
    {
      "constant": false,
      "inputs": [],
      "name": "renounceCasino",
      "outputs": [],
      "payable": false,
      "stateMutability": "nonpayable",
      "type": "function"
    }
  ],
  "bytecode": "0x608060405234801561001057600080fd5b506100293361002e640100000000026401000000009004565b6101e8565b61004f816000610095640100000000026102a1179091906401000000009004565b8073ffffffffffffffffffffffffffffffffffffffff167f3ff6cbff453360d960196b530ba7b7c7f5062e7fdffc9b4ed8aa311ece1b402060405160405180910390a250565b600073ffffffffffffffffffffffffffffffffffffffff168173ffffffffffffffffffffffffffffffffffffffff16141515156100d157600080fd5b6100ea8282610154640100000000026401000000009004565b1515156100f657600080fd5b60018260000160008373ffffffffffffffffffffffffffffffffffffffff1673ffffffffffffffffffffffffffffffffffffffff16815260200190815260200160002060006101000a81548160ff0219169083151502179055505050565b60008073ffffffffffffffffffffffffffffffffffffffff168273ffffffffffffffffffffffffffffffffffffffff161415151561019157600080fd5b8260000160008373ffffffffffffffffffffffffffffffffffffffff1673ffffffffffffffffffffffffffffffffffffffff16815260200190815260200160002060009054906101000a900460ff16905092915050565b61042c806101f76000396000f300608060405260043610610057576000357c0100000000000000000000000000000000000000000000000000000000900463ffffffff1680630ef862811461005c57806361523b30146100b7578063c2730ac0146100fa575b600080fd5b34801561006857600080fd5b5061009d600480360381019080803573ffffffffffffffffffffffffffffffffffffffff169060200190929190505050610111565b604051808215151515815260200191505060405180910390f35b3480156100c357600080fd5b506100f8600480360381019080803573ffffffffffffffffffffffffffffffffffffffff16906020019092919050505061012e565b005b34801561010657600080fd5b5061010f61014e565b005b600061012782600061015990919063ffffffff16565b9050919050565b61013733610111565b151561014257600080fd5b61014b816101ed565b50565b61015733610247565b565b60008073ffffffffffffffffffffffffffffffffffffffff168273ffffffffffffffffffffffffffffffffffffffff161415151561019657600080fd5b8260000160008373ffffffffffffffffffffffffffffffffffffffff1673ffffffffffffffffffffffffffffffffffffffff16815260200190815260200160002060009054906101000a900460ff16905092915050565b6102018160006102a190919063ffffffff16565b8073ffffffffffffffffffffffffffffffffffffffff167f3ff6cbff453360d960196b530ba7b7c7f5062e7fdffc9b4ed8aa311ece1b402060405160405180910390a250565b61025b81600061035190919063ffffffff16565b8073ffffffffffffffffffffffffffffffffffffffff167f9a417e953f133aaa1c37d401fa677ffba1c28780b5e8bdaa53301376a7a744bc60405160405180910390a250565b600073ffffffffffffffffffffffffffffffffffffffff168173ffffffffffffffffffffffffffffffffffffffff16141515156102dd57600080fd5b6102e78282610159565b1515156102f357600080fd5b60018260000160008373ffffffffffffffffffffffffffffffffffffffff1673ffffffffffffffffffffffffffffffffffffffff16815260200190815260200160002060006101000a81548160ff0219169083151502179055505050565b600073ffffffffffffffffffffffffffffffffffffffff168173ffffffffffffffffffffffffffffffffffffffff161415151561038d57600080fd5b6103978282610159565b15156103a257600080fd5b60008260000160008373ffffffffffffffffffffffffffffffffffffffff1673ffffffffffffffffffffffffffffffffffffffff16815260200190815260200160002060006101000a81548160ff02191690831515021790555050505600a165627a7a7230582040c91fdc79b91c7c45a0c3324e0d37ebd4d67a8999469f4b2cd37b7c719da0d70029",
  "source": "pragma solidity ^0.4.24;\n\n// Import the library 'Roles'\nimport \"./Roles.sol\";\n\n// Define a contract 'CasinoRole' to manage this role - add, remove, check\ncontract CasinoRole {\n  using Roles for Roles.Role;\n  \n  // Define 2 events, one for Adding, and other for Removing\n  event CasinoAdded(address indexed account);\n  event CasinoRemoved(address indexed account);\n\n  // Define a struct 'casinos' by inheriting from 'Roles' library, struct Role\n   Roles.Role private casinos;\n\n  // In the constructor make the address that deploys this contract the 1st casinos\n  constructor() public {\n    _addCasino(msg.sender);\n  }\n\n  // Define a modifier that checks to see if msg.sender has the appropriate role\n  modifier onlyCasino() {\n    require(isCasino(msg.sender));\n    _;\n  }\n\n  // Define a function 'isCasino' to check this role\n  function isCasino(address account) public view returns (bool) {\n    return casinos.has(account);\n  }\n\n  // Define a function 'addCasino' that adds this role\n  function addCasino(address account) public onlyCasino {\n    _addCasino(account);\n  }\n\n  // Define a function 'renounceCasino' to renounce this role\n  function renounceCasino() public {\n    _removeCasino(msg.sender);\n  }\n\n  // Define an internal function '_addCasino' to add this role, called by 'addCasino'\n  function _addCasino(address account) internal {\n    casinos.add(account);\n    emit CasinoAdded(account);\n  }\n\n  // Define an internal function '_removeCasino' to remove this role, called by 'removeCasino'\n  function _removeCasino(address account) internal {\n    casinos.remove(account);\n    emit CasinoRemoved(account);\n  }\n}",
  "sourcePath": "/Users/joeyberger/Desktop/Udacity/Blockchain Nanodegree/GitHub Repos/SlotSupplyChainSolution/project-6/contracts/slottitleaccesscontrol/CasinoRole.sol",
  "compiler": {
    "name": "solc",
    "version": "0.4.24+commit.e67f0147.Emscripten.clang"
  },
  "schemaVersion": "2.0.1",
  "updatedAt": "2019-02-19T02:52:35.161Z"
}