{
  "contractName": "GameStudioRole",
  "abi": [
    {
      "inputs": [],
      "payable": false,
      "stateMutability": "nonpayable",
      "type": "constructor"
    },
    {
      "anonymous": false,
      "inputs": [
        {
          "indexed": true,
          "name": "account",
          "type": "address"
        }
      ],
      "name": "GameStudioAdded",
      "type": "event"
    },
    {
      "anonymous": false,
      "inputs": [
        {
          "indexed": true,
          "name": "account",
          "type": "address"
        }
      ],
      "name": "GameStudioRemoved",
      "type": "event"
    },
    {
      "constant": true,
      "inputs": [
        {
          "name": "account",
          "type": "address"
        }
      ],
      "name": "isGameStudio",
      "outputs": [
        {
          "name": "",
          "type": "bool"
        }
      ],
      "payable": false,
      "stateMutability": "view",
      "type": "function"
    },
    {
      "constant": false,
      "inputs": [
        {
          "name": "account",
          "type": "address"
        }
      ],
      "name": "addGameStudio",
      "outputs": [],
      "payable": false,
      "stateMutability": "nonpayable",
      "type": "function"
    },
    {
      "constant": false,
      "inputs": [],
      "name": "renounceGameStudio",
      "outputs": [],
      "payable": false,
      "stateMutability": "nonpayable",
      "type": "function"
    }
  ],
  "bytecode": "0x608060405234801561001057600080fd5b506100293361002e640100000000026401000000009004565b6101e8565b61004f81600061009564010000000002610350179091906401000000009004565b8073ffffffffffffffffffffffffffffffffffffffff167fdbba04efcb0a9c07abfd243c6c1c958c204788a9249a474b4a7d49dd4005678960405160405180910390a250565b600073ffffffffffffffffffffffffffffffffffffffff168173ffffffffffffffffffffffffffffffffffffffff16141515156100d157600080fd5b6100ea8282610154640100000000026401000000009004565b1515156100f657600080fd5b60018260000160008373ffffffffffffffffffffffffffffffffffffffff1673ffffffffffffffffffffffffffffffffffffffff16815260200190815260200160002060006101000a81548160ff0219169083151502179055505050565b60008073ffffffffffffffffffffffffffffffffffffffff168273ffffffffffffffffffffffffffffffffffffffff161415151561019157600080fd5b8260000160008373ffffffffffffffffffffffffffffffffffffffff1673ffffffffffffffffffffffffffffffffffffffff16815260200190815260200160002060009054906101000a900460ff16905092915050565b61042c806101f76000396000f300608060405260043610610057576000357c0100000000000000000000000000000000000000000000000000000000900463ffffffff1680631aa85f371461005c578063903a1e3014610073578063970c4e99146100ce575b600080fd5b34801561006857600080fd5b50610071610111565b005b34801561007f57600080fd5b506100b4600480360381019080803573ffffffffffffffffffffffffffffffffffffffff16906020019092919050505061011c565b604051808215151515815260200191505060405180910390f35b3480156100da57600080fd5b5061010f600480360381019080803573ffffffffffffffffffffffffffffffffffffffff169060200190929190505050610139565b005b61011a33610159565b565b60006101328260006101b390919063ffffffff16565b9050919050565b6101423361011c565b151561014d57600080fd5b61015681610247565b50565b61016d8160006102a190919063ffffffff16565b8073ffffffffffffffffffffffffffffffffffffffff167f19508ee466a695c2d71961f23ff7dca709a7cf8b39797e92b5a7bca854786a9060405160405180910390a250565b60008073ffffffffffffffffffffffffffffffffffffffff168273ffffffffffffffffffffffffffffffffffffffff16141515156101f057600080fd5b8260000160008373ffffffffffffffffffffffffffffffffffffffff1673ffffffffffffffffffffffffffffffffffffffff16815260200190815260200160002060009054906101000a900460ff16905092915050565b61025b81600061035090919063ffffffff16565b8073ffffffffffffffffffffffffffffffffffffffff167fdbba04efcb0a9c07abfd243c6c1c958c204788a9249a474b4a7d49dd4005678960405160405180910390a250565b600073ffffffffffffffffffffffffffffffffffffffff168173ffffffffffffffffffffffffffffffffffffffff16141515156102dd57600080fd5b6102e782826101b3565b15156102f257600080fd5b60008260000160008373ffffffffffffffffffffffffffffffffffffffff1673ffffffffffffffffffffffffffffffffffffffff16815260200190815260200160002060006101000a81548160ff0219169083151502179055505050565b600073ffffffffffffffffffffffffffffffffffffffff168173ffffffffffffffffffffffffffffffffffffffff161415151561038c57600080fd5b61039682826101b3565b1515156103a257600080fd5b60018260000160008373ffffffffffffffffffffffffffffffffffffffff1673ffffffffffffffffffffffffffffffffffffffff16815260200190815260200160002060006101000a81548160ff02191690831515021790555050505600a165627a7a7230582074b012c062c946266713c19ac21eab085e03af346b914934c6b7494db7e920a40029",
  "source": "pragma solidity ^0.4.24;\n\n// Import the library 'Roles'\nimport \"./Roles.sol\";\n\n// Define a contract 'GameStudioRole' to manage this role - add, remove, check\ncontract GameStudioRole {\n  using Roles for Roles.Role;\n\n  // Define 2 events, one for Adding, and other for Removing\n  event GameStudioAdded(address indexed account);\n  event GameStudioRemoved(address indexed account);\n\n  // Define a struct 'gameStudio' by inheriting from 'Roles' library, struct Role\n  Roles.Role private gameStudio;\n\n  // In the constructor make the address that deploys this contract the 1st game studio\n  constructor() public {\n    _addGameStudio(msg.sender);\n  }\n\n  // Define a modifier that checks to see if msg.sender has the appropriate role\n  modifier onlyGameStudio() {\n    require(isGameStudio(msg.sender));\n    _;\n  }\n\n  // Define a function 'isGameStudio' to check this role\n  function isGameStudio(address account) public view returns (bool) {\n    return gameStudio.has(account);\n  }\n\n  // Define a function 'addGameStudio' that adds this role\n  function addGameStudio(address account) public onlyGameStudio {\n    _addGameStudio(account);\n  }\n\n  // Define a function 'renounceGameStudio' to renounce this role\n  function renounceGameStudio() public {\n    _removeGameStudio(msg.sender);\n  }\n\n  // Define an internal function '_addGameStudio' to add this role, called by 'addGameStudio'\n  function _addGameStudio(address account) internal {\n    gameStudio.add(account);\n    emit GameStudioAdded(account);\n  }\n\n  // Define an internal function '_removeGameStudio' to remove this role, called by 'removeGameStudio'\n  function _removeGameStudio(address account) internal {\n    gameStudio.remove(account);\n    emit GameStudioRemoved(account);\n  }\n}",
  "sourcePath": "/Users/joeyberger/Desktop/Udacity/Blockchain Nanodegree/GitHub Repos/SlotSupplyChainSolution/project-6/contracts/slottitleaccesscontrol/GameStudioRole.sol",
  "compiler": {
    "name": "solc",
    "version": "0.4.24+commit.e67f0147.Emscripten.clang"
  },
  "schemaVersion": "2.0.1",
  "updatedAt": "2019-02-24T04:53:18.458Z"
}