{
  "contractName": "RegulatoryRole",
  "abi": [
    {
      "inputs": [],
      "payable": false,
      "stateMutability": "nonpayable",
      "type": "constructor"
    },
    {
      "anonymous": false,
      "inputs": [
        {
          "indexed": true,
          "name": "account",
          "type": "address"
        }
      ],
      "name": "RegulatoryAdded",
      "type": "event"
    },
    {
      "anonymous": false,
      "inputs": [
        {
          "indexed": true,
          "name": "account",
          "type": "address"
        }
      ],
      "name": "RegulatoryRemoved",
      "type": "event"
    },
    {
      "constant": true,
      "inputs": [
        {
          "name": "account",
          "type": "address"
        }
      ],
      "name": "isRegulatory",
      "outputs": [
        {
          "name": "",
          "type": "bool"
        }
      ],
      "payable": false,
      "stateMutability": "view",
      "type": "function"
    },
    {
      "constant": false,
      "inputs": [
        {
          "name": "account",
          "type": "address"
        }
      ],
      "name": "addRegulatory",
      "outputs": [],
      "payable": false,
      "stateMutability": "nonpayable",
      "type": "function"
    },
    {
      "constant": false,
      "inputs": [],
      "name": "renounceRegulatory",
      "outputs": [],
      "payable": false,
      "stateMutability": "nonpayable",
      "type": "function"
    }
  ],
  "bytecode": "0x608060405234801561001057600080fd5b506100293361002e640100000000026401000000009004565b6101e8565b61004f81600061009564010000000002610350179091906401000000009004565b8073ffffffffffffffffffffffffffffffffffffffff167f540fbfefa26243b067172c51169b3b1cb1fbfb8882dd07979403550b163279d360405160405180910390a250565b600073ffffffffffffffffffffffffffffffffffffffff168173ffffffffffffffffffffffffffffffffffffffff16141515156100d157600080fd5b6100ea8282610154640100000000026401000000009004565b1515156100f657600080fd5b60018260000160008373ffffffffffffffffffffffffffffffffffffffff1673ffffffffffffffffffffffffffffffffffffffff16815260200190815260200160002060006101000a81548160ff0219169083151502179055505050565b60008073ffffffffffffffffffffffffffffffffffffffff168273ffffffffffffffffffffffffffffffffffffffff161415151561019157600080fd5b8260000160008373ffffffffffffffffffffffffffffffffffffffff1673ffffffffffffffffffffffffffffffffffffffff16815260200190815260200160002060009054906101000a900460ff16905092915050565b61042c806101f76000396000f300608060405260043610610057576000357c0100000000000000000000000000000000000000000000000000000000900463ffffffff16806363959f131461005c578063b710aa9214610073578063de30ae95146100ce575b600080fd5b34801561006857600080fd5b50610071610111565b005b34801561007f57600080fd5b506100b4600480360381019080803573ffffffffffffffffffffffffffffffffffffffff16906020019092919050505061011c565b604051808215151515815260200191505060405180910390f35b3480156100da57600080fd5b5061010f600480360381019080803573ffffffffffffffffffffffffffffffffffffffff169060200190929190505050610139565b005b61011a33610159565b565b60006101328260006101b390919063ffffffff16565b9050919050565b6101423361011c565b151561014d57600080fd5b61015681610247565b50565b61016d8160006102a190919063ffffffff16565b8073ffffffffffffffffffffffffffffffffffffffff167f1b33b19a6a0f47aeec803bfcce058bd1e7d18f798e04cadabf67255a17bf6ad160405160405180910390a250565b60008073ffffffffffffffffffffffffffffffffffffffff168273ffffffffffffffffffffffffffffffffffffffff16141515156101f057600080fd5b8260000160008373ffffffffffffffffffffffffffffffffffffffff1673ffffffffffffffffffffffffffffffffffffffff16815260200190815260200160002060009054906101000a900460ff16905092915050565b61025b81600061035090919063ffffffff16565b8073ffffffffffffffffffffffffffffffffffffffff167f540fbfefa26243b067172c51169b3b1cb1fbfb8882dd07979403550b163279d360405160405180910390a250565b600073ffffffffffffffffffffffffffffffffffffffff168173ffffffffffffffffffffffffffffffffffffffff16141515156102dd57600080fd5b6102e782826101b3565b15156102f257600080fd5b60008260000160008373ffffffffffffffffffffffffffffffffffffffff1673ffffffffffffffffffffffffffffffffffffffff16815260200190815260200160002060006101000a81548160ff0219169083151502179055505050565b600073ffffffffffffffffffffffffffffffffffffffff168173ffffffffffffffffffffffffffffffffffffffff161415151561038c57600080fd5b61039682826101b3565b1515156103a257600080fd5b60018260000160008373ffffffffffffffffffffffffffffffffffffffff1673ffffffffffffffffffffffffffffffffffffffff16815260200190815260200160002060006101000a81548160ff02191690831515021790555050505600a165627a7a72305820bb06d28f0cefbe6271f001834b1712effb72a658c28616c6a10907d2ee7c67160029",
  "source": "pragma solidity ^0.4.24;\n\n// Import the library 'Roles'\nimport \"./Roles.sol\";\n\n// Define a contract 'RegulatoryRole' to manage this role - add, remove, check\ncontract RegulatoryRole {\n  using Roles for Roles.Role;\n  // Define 2 events, one for Adding, and other for Removing\n  event RegulatoryAdded(address indexed account);\n  event RegulatoryRemoved(address indexed account);\n  // Define a struct 'regulatoryBodies' by inheriting from 'Roles' library, struct Role\n  Roles.Role private regulatoryBodies;\n\n  // In the constructor make the address that deploys this contract the 1st regulatory bodies\n  constructor() public {\n    _addRegulatory(msg.sender);\n  }\n\n  // Define a modifier that checks to see if msg.sender has the appropriate role\n  modifier onlyRegulatory() {\n    require(isRegulatory(msg.sender));\n    _;\n  }\n\n  // Define a function 'isRegulatory' to check this role\n  function isRegulatory(address account) public view returns (bool) {\n    return regulatoryBodies.has(account);\n  }\n\n  // Define a function 'addRegulatory' that adds this role\n  function addRegulatory(address account) public onlyRegulatory {\n    _addRegulatory(account);\n  }\n\n  // Define a function 'renounceRegulatory' to renounce this role\n  function renounceRegulatory() public {\n    _removeRegulatory(msg.sender);\n  }\n\n  // Define an internal function '_addRegulatory' to add this role, called by 'addRegulatory'\n  function _addRegulatory(address account) internal {\n    regulatoryBodies.add(account);\n    emit RegulatoryAdded(account);    \n  }\n\n  // Define an internal function '_removeRegulatory' to remove this role, called by 'removeRegulatory'\n  function _removeRegulatory(address account) internal {\n    regulatoryBodies.remove(account);\n    emit RegulatoryRemoved(account);\n  }\n}",
  "sourcePath": "/Users/joeyberger/Desktop/Udacity/Blockchain Nanodegree/GitHub Repos/SlotSupplyChainSolution/project-6/contracts/slottitleaccesscontrol/RegulatoryRole.sol",
  "compiler": {
    "name": "solc",
    "version": "0.4.24+commit.e67f0147.Emscripten.clang"
  },
  "schemaVersion": "2.0.1",
  "updatedAt": "2019-02-24T04:53:18.461Z"
}