{
  "contractName": "SupplyChain",
  "abi": [
    {
      "inputs": [],
      "payable": true,
      "stateMutability": "payable",
      "type": "constructor"
    },
    {
      "anonymous": false,
      "inputs": [
        {
          "indexed": false,
          "name": "upc",
          "type": "uint256"
        }
      ],
      "name": "MathReady",
      "type": "event"
    },
    {
      "anonymous": false,
      "inputs": [
        {
          "indexed": false,
          "name": "upc",
          "type": "uint256"
        }
      ],
      "name": "ArtReady",
      "type": "event"
    },
    {
      "anonymous": false,
      "inputs": [
        {
          "indexed": false,
          "name": "upc",
          "type": "uint256"
        }
      ],
      "name": "AnimReady",
      "type": "event"
    },
    {
      "anonymous": false,
      "inputs": [
        {
          "indexed": false,
          "name": "upc",
          "type": "uint256"
        }
      ],
      "name": "AudioReady",
      "type": "event"
    },
    {
      "anonymous": false,
      "inputs": [
        {
          "indexed": false,
          "name": "upc",
          "type": "uint256"
        }
      ],
      "name": "PrelimTestingComplete",
      "type": "event"
    },
    {
      "anonymous": false,
      "inputs": [
        {
          "indexed": false,
          "name": "upc",
          "type": "uint256"
        }
      ],
      "name": "ForSale",
      "type": "event"
    },
    {
      "anonymous": false,
      "inputs": [
        {
          "indexed": false,
          "name": "upc",
          "type": "uint256"
        }
      ],
      "name": "Sold",
      "type": "event"
    },
    {
      "anonymous": false,
      "inputs": [
        {
          "indexed": false,
          "name": "upc",
          "type": "uint256"
        }
      ],
      "name": "QATested",
      "type": "event"
    },
    {
      "anonymous": false,
      "inputs": [
        {
          "indexed": false,
          "name": "upc",
          "type": "uint256"
        }
      ],
      "name": "ReleasedForReg",
      "type": "event"
    },
    {
      "anonymous": false,
      "inputs": [
        {
          "indexed": false,
          "name": "upc",
          "type": "uint256"
        }
      ],
      "name": "EnteredReg",
      "type": "event"
    },
    {
      "anonymous": false,
      "inputs": [
        {
          "indexed": false,
          "name": "upc",
          "type": "uint256"
        }
      ],
      "name": "RegulatoryComplete",
      "type": "event"
    },
    {
      "anonymous": false,
      "inputs": [
        {
          "indexed": false,
          "name": "upc",
          "type": "uint256"
        }
      ],
      "name": "ReleasedForMarketing",
      "type": "event"
    },
    {
      "anonymous": false,
      "inputs": [
        {
          "indexed": false,
          "name": "upc",
          "type": "uint256"
        }
      ],
      "name": "MarketingComplete",
      "type": "event"
    },
    {
      "anonymous": false,
      "inputs": [
        {
          "indexed": false,
          "name": "upc",
          "type": "uint256"
        }
      ],
      "name": "ReadyForRelease",
      "type": "event"
    },
    {
      "anonymous": false,
      "inputs": [
        {
          "indexed": false,
          "name": "upc",
          "type": "uint256"
        }
      ],
      "name": "Purchased",
      "type": "event"
    },
    {
      "anonymous": false,
      "inputs": [
        {
          "indexed": false,
          "name": "upc",
          "type": "uint256"
        }
      ],
      "name": "Installed",
      "type": "event"
    },
    {
      "constant": false,
      "inputs": [],
      "name": "kill",
      "outputs": [],
      "payable": false,
      "stateMutability": "nonpayable",
      "type": "function"
    },
    {
      "constant": false,
      "inputs": [
        {
          "name": "_upc",
          "type": "uint256"
        },
        {
          "name": "_originSlotTitleID",
          "type": "address"
        },
        {
          "name": "_originGameStudioID",
          "type": "string"
        },
        {
          "name": "_originGameStudioInformation",
          "type": "string"
        },
        {
          "name": "_originGameStudioAddress",
          "type": "string"
        },
        {
          "name": "_originGameStudioEmailContact",
          "type": "string"
        },
        {
          "name": "_productNotes",
          "type": "string"
        }
      ],
      "name": "designMath",
      "outputs": [],
      "payable": false,
      "stateMutability": "nonpayable",
      "type": "function"
    },
    {
      "constant": false,
      "inputs": [
        {
          "name": "_upc",
          "type": "uint256"
        }
      ],
      "name": "designArt",
      "outputs": [],
      "payable": false,
      "stateMutability": "nonpayable",
      "type": "function"
    },
    {
      "constant": false,
      "inputs": [
        {
          "name": "_upc",
          "type": "uint256"
        }
      ],
      "name": "designAnim",
      "outputs": [],
      "payable": false,
      "stateMutability": "nonpayable",
      "type": "function"
    },
    {
      "constant": false,
      "inputs": [
        {
          "name": "_upc",
          "type": "uint256"
        }
      ],
      "name": "designAudio",
      "outputs": [],
      "payable": false,
      "stateMutability": "nonpayable",
      "type": "function"
    },
    {
      "constant": false,
      "inputs": [
        {
          "name": "_upc",
          "type": "uint256"
        }
      ],
      "name": "conductPrelimTesting",
      "outputs": [],
      "payable": false,
      "stateMutability": "nonpayable",
      "type": "function"
    },
    {
      "constant": false,
      "inputs": [
        {
          "name": "_upc",
          "type": "uint256"
        },
        {
          "name": "_price",
          "type": "uint256"
        }
      ],
      "name": "sellItem",
      "outputs": [],
      "payable": false,
      "stateMutability": "nonpayable",
      "type": "function"
    },
    {
      "constant": false,
      "inputs": [
        {
          "name": "_upc",
          "type": "uint256"
        }
      ],
      "name": "buyItem",
      "outputs": [],
      "payable": true,
      "stateMutability": "payable",
      "type": "function"
    },
    {
      "constant": false,
      "inputs": [
        {
          "name": "_upc",
          "type": "uint256"
        }
      ],
      "name": "conductQA",
      "outputs": [],
      "payable": false,
      "stateMutability": "nonpayable",
      "type": "function"
    },
    {
      "constant": false,
      "inputs": [
        {
          "name": "_upc",
          "type": "uint256"
        }
      ],
      "name": "releaseForReg",
      "outputs": [],
      "payable": false,
      "stateMutability": "nonpayable",
      "type": "function"
    },
    {
      "constant": false,
      "inputs": [
        {
          "name": "_upc",
          "type": "uint256"
        }
      ],
      "name": "enterRegulatory",
      "outputs": [],
      "payable": false,
      "stateMutability": "nonpayable",
      "type": "function"
    },
    {
      "constant": false,
      "inputs": [
        {
          "name": "_upc",
          "type": "uint256"
        }
      ],
      "name": "exitRegulatory",
      "outputs": [],
      "payable": false,
      "stateMutability": "nonpayable",
      "type": "function"
    },
    {
      "constant": false,
      "inputs": [
        {
          "name": "_upc",
          "type": "uint256"
        }
      ],
      "name": "releaseForMarketing",
      "outputs": [],
      "payable": false,
      "stateMutability": "nonpayable",
      "type": "function"
    },
    {
      "constant": false,
      "inputs": [
        {
          "name": "_upc",
          "type": "uint256"
        }
      ],
      "name": "exitMarketing",
      "outputs": [],
      "payable": false,
      "stateMutability": "nonpayable",
      "type": "function"
    },
    {
      "constant": false,
      "inputs": [
        {
          "name": "_upc",
          "type": "uint256"
        },
        {
          "name": "_price",
          "type": "uint256"
        }
      ],
      "name": "moveForRelease",
      "outputs": [],
      "payable": false,
      "stateMutability": "nonpayable",
      "type": "function"
    },
    {
      "constant": false,
      "inputs": [
        {
          "name": "_upc",
          "type": "uint256"
        }
      ],
      "name": "purchaseItem",
      "outputs": [],
      "payable": true,
      "stateMutability": "payable",
      "type": "function"
    },
    {
      "constant": false,
      "inputs": [
        {
          "name": "_upc",
          "type": "uint256"
        }
      ],
      "name": "installGame",
      "outputs": [],
      "payable": false,
      "stateMutability": "nonpayable",
      "type": "function"
    },
    {
      "constant": true,
      "inputs": [
        {
          "name": "_upc",
          "type": "uint256"
        }
      ],
      "name": "fetchItemBufferOne",
      "outputs": [
        {
          "name": "itemSKU",
          "type": "uint256"
        },
        {
          "name": "itemUPC",
          "type": "uint256"
        },
        {
          "name": "ownerID",
          "type": "address"
        },
        {
          "name": "originSlotTitleID",
          "type": "address"
        },
        {
          "name": "originGameStudioID",
          "type": "string"
        },
        {
          "name": "originGameStudioInformation",
          "type": "string"
        },
        {
          "name": "originGameStudioAddress",
          "type": "string"
        },
        {
          "name": "originGameStudioEmailContact",
          "type": "string"
        }
      ],
      "payable": false,
      "stateMutability": "view",
      "type": "function"
    },
    {
      "constant": true,
      "inputs": [
        {
          "name": "_upc",
          "type": "uint256"
        }
      ],
      "name": "fetchItemBufferTwo",
      "outputs": [
        {
          "name": "itemSKU",
          "type": "uint256"
        },
        {
          "name": "itemUPC",
          "type": "uint256"
        },
        {
          "name": "productID",
          "type": "uint256"
        },
        {
          "name": "productNotes",
          "type": "string"
        },
        {
          "name": "productPrice",
          "type": "uint256"
        },
        {
          "name": "itemState",
          "type": "uint8"
        },
        {
          "name": "slotManufacturerID",
          "type": "address"
        },
        {
          "name": "regulatoryID",
          "type": "address"
        },
        {
          "name": "casinoID",
          "type": "address"
        }
      ],
      "payable": false,
      "stateMutability": "view",
      "type": "function"
    }
  ],
  "bytecode": "0x6080604052336000806101000a81548173ffffffffffffffffffffffffffffffffffffffff021916908373ffffffffffffffffffffffffffffffffffffffff16021790555060016002819055506001808190555061277e806100626000396000f300608060405260043610610107576000357c0100000000000000000000000000000000000000000000000000000000900463ffffffff1680630a789e891461010c5780630d6ec052146101395780630ebd3fb2146101665780632d9235611461019d5780633c5cd23d146101d457806341c0e1b5146102015780635e62626d1461021857806366225ff91461024557806371d012a0146103b557806377c45913146103e257806386b49aaa146106405780639c5f846e1461066d578063b025ac581461069a578063b6cbbc84146106c7578063cef2fa4d146106f4578063d38ea5bf14610721578063d49cbb4a14610741578063e7fb74c7146108ec578063f60a66801461090c575b600080fd5b34801561011857600080fd5b5061013760048036038101908080359060200190929190505050610939565b005b34801561014557600080fd5b5061016460048036038101908080359060200190929190505050610a67565b005b34801561017257600080fd5b5061019b6004803603810190808035906020019092919080359060200190929190505050610b95565b005b3480156101a957600080fd5b506101d26004803603810190808035906020019092919080359060200190929190505050610c6d565b005b3480156101e057600080fd5b506101ff60048036038101908080359060200190929190505050610db7565b005b34801561020d57600080fd5b50610216610f1d565b005b34801561022457600080fd5b5061024360048036038101908080359060200190929190505050610fae565b005b34801561025157600080fd5b50610270600480360381019080803590602001909291905050506110db565b604051808a81526020018981526020018881526020018060200187815260200186600f81111561029c57fe5b60ff1681526020018573ffffffffffffffffffffffffffffffffffffffff1673ffffffffffffffffffffffffffffffffffffffff1681526020018473ffffffffffffffffffffffffffffffffffffffff1673ffffffffffffffffffffffffffffffffffffffff1681526020018373ffffffffffffffffffffffffffffffffffffffff1673ffffffffffffffffffffffffffffffffffffffff168152602001828103825288818151815260200191508051906020019080838360005b83811015610372578082015181840152602081019050610357565b50505050905090810190601f16801561039f5780820380516001836020036101000a031916815260200191505b509a505050505050505050505060405180910390f35b3480156103c157600080fd5b506103e0600480360381019080803590602001909291905050506112f8565b005b3480156103ee57600080fd5b5061040d60048036038101908080359060200190929190505050611426565b604051808981526020018881526020018773ffffffffffffffffffffffffffffffffffffffff1673ffffffffffffffffffffffffffffffffffffffff1681526020018673ffffffffffffffffffffffffffffffffffffffff1673ffffffffffffffffffffffffffffffffffffffff16815260200180602001806020018060200180602001858103855289818151815260200191508051906020019080838360005b838110156104c95780820151818401526020810190506104ae565b50505050905090810190601f1680156104f65780820380516001836020036101000a031916815260200191505b50858103845288818151815260200191508051906020019080838360005b8381101561052f578082015181840152602081019050610514565b50505050905090810190601f16801561055c5780820380516001836020036101000a031916815260200191505b50858103835287818151815260200191508051906020019080838360005b8381101561059557808201518184015260208101905061057a565b50505050905090810190601f1680156105c25780820380516001836020036101000a031916815260200191505b50858103825286818151815260200191508051906020019080838360005b838110156105fb5780820151818401526020810190506105e0565b50505050905090810190601f1680156106285780820380516001836020036101000a031916815260200191505b509c5050505050505050505050505060405180910390f35b34801561064c57600080fd5b5061066b600480360381019080803590602001909291905050506117bd565b005b34801561067957600080fd5b50610698600480360381019080803590602001909291905050506118eb565b005b3480156106a657600080fd5b506106c560048036038101908080359060200190929190505050611a19565b005b3480156106d357600080fd5b506106f260048036038101908080359060200190929190505050611b47565b005b34801561070057600080fd5b5061071f60048036038101908080359060200190929190505050611c75565b005b61073f60048036038101908080359060200190929190505050611e2e565b005b34801561074d57600080fd5b506108ea60048036038101908080359060200190929190803573ffffffffffffffffffffffffffffffffffffffff169060200190929190803590602001908201803590602001908080601f0160208091040260200160405190810160405280939291908181526020018383808284378201915050505050509192919290803590602001908201803590602001908080601f0160208091040260200160405190810160405280939291908181526020018383808284378201915050505050509192919290803590602001908201803590602001908080601f0160208091040260200160405190810160405280939291908181526020018383808284378201915050505050509192919290803590602001908201803590602001908080601f0160208091040260200160405190810160405280939291908181526020018383808284378201915050505050509192919290803590602001908201803590602001908080601f016020809104026020016040519081016040528093929190818152602001838380828437820191505050505050919291929050505061205f565b005b61090a600480360381019080803590602001909291905050506122bb565b005b34801561091857600080fd5b506109376004803603810190808035906020019092919050505061257f565b005b806000600f81111561094757fe5b60036000838152602001908152602001600020600c0160009054906101000a900460ff16600f81111561097657fe5b14151561098257600080fd5b6003600083815260200190815260200160002060030160009054906101000a900473ffffffffffffffffffffffffffffffffffffffff168073ffffffffffffffffffffffffffffffffffffffff163373ffffffffffffffffffffffffffffffffffffffff161415156109f357600080fd5b600160036000858152602001908152602001600020600c0160006101000a81548160ff0219169083600f811115610a2657fe5b02179055507ff5e9a34cd3016ad8a0d423648229fb3443268d1dcdbe48f4a42c114f25d4477e836040518082815260200191505060405180910390a1505050565b80600e600f811115610a7557fe5b60036000838152602001908152602001600020600c0160009054906101000a900460ff16600f811115610aa457fe5b141515610ab057600080fd5b60036000838152602001908152602001600020600e0160009054906101000a900473ffffffffffffffffffffffffffffffffffffffff168073ffffffffffffffffffffffffffffffffffffffff163373ffffffffffffffffffffffffffffffffffffffff16141515610b2157600080fd5b600f60036000858152602001908152602001600020600c0160006101000a81548160ff0219169083600f811115610b5457fe5b02179055507f502749b8a684cf092b2cfff41a59b9aff2bde23e3a1aca4b3cde4a6fe6db817d836040518082815260200191505060405180910390a1505050565b81600c600f811115610ba357fe5b60036000838152602001908152602001600020600c0160009054906101000a900460ff16600f811115610bd257fe5b141515610bde57600080fd5b600d60036000858152602001908152602001600020600c0160006101000a81548160ff0219169083600f811115610c1157fe5b02179055508160036000858152602001908152602001600020600b01819055507f683adb2eb24fe37c8b2db1258c611da2027ba33f512e7120286df5b5018156c2836040518082815260200191505060405180910390a1505050565b816004600f811115610c7b57fe5b60036000838152602001908152602001600020600c0160009054906101000a900460ff16600f811115610caa57fe5b141515610cb657600080fd5b6003600084815260200190815260200160002060030160009054906101000a900473ffffffffffffffffffffffffffffffffffffffff168073ffffffffffffffffffffffffffffffffffffffff163373ffffffffffffffffffffffffffffffffffffffff16141515610d2757600080fd5b600560036000868152602001908152602001600020600c0160006101000a81548160ff0219169083600f811115610d5a57fe5b02179055508260036000868152602001908152602001600020600a01819055507fa96ae0fc3224ebd79eebfe54bd130cc9cb94416cddd1f2386115e00b72532468846040518082815260200191505060405180910390a150505050565b806008600f811115610dc557fe5b60036000838152602001908152602001600020600c0160009054906101000a900460ff16600f811115610df457fe5b141515610e0057600080fd5b336003600084815260200190815260200160002060020160006101000a81548173ffffffffffffffffffffffffffffffffffffffff021916908373ffffffffffffffffffffffffffffffffffffffff1602179055503360036000848152602001908152602001600020600d0160006101000a81548173ffffffffffffffffffffffffffffffffffffffff021916908373ffffffffffffffffffffffffffffffffffffffff160217905550600960036000848152602001908152602001600020600c0160006101000a81548160ff0219169083600f811115610edd57fe5b02179055507f6918045d4b415f8e9f477a962e28c94377e5332bce245c83444018c601b56bfa826040518082815260200191505060405180910390a15050565b6000809054906101000a900473ffffffffffffffffffffffffffffffffffffffff1673ffffffffffffffffffffffffffffffffffffffff163373ffffffffffffffffffffffffffffffffffffffff161415610fac576000809054906101000a900473ffffffffffffffffffffffffffffffffffffffff1673ffffffffffffffffffffffffffffffffffffffff16ff5b565b806002600f811115610fbc57fe5b60036000838152602001908152602001600020600c0160009054906101000a900460ff16600f811115610feb57fe5b141515610ff757600080fd5b6003600083815260200190815260200160002060030160009054906101000a900473ffffffffffffffffffffffffffffffffffffffff168073ffffffffffffffffffffffffffffffffffffffff163373ffffffffffffffffffffffffffffffffffffffff1614151561106857600080fd5b6003806000858152602001908152602001600020600c0160006101000a81548160ff0219169083600f81111561109a57fe5b02179055507f204b1e725b0f96cba216a26b9d26845a2a3ec17bf6c5b1277135b459cf6e5186836040518082815260200191505060405180910390a1505050565b600080600060606000806000806000600360008b8152602001908152602001600020600001549850600360008b8152602001908152602001600020600101549750600360008b8152602001908152602001600020600801549650600360008b81526020019081526020016000206009018054600181600116156101000203166002900480601f0160208091040260200160405190810160405280929190818152602001828054600181600116156101000203166002900480156111df5780601f106111b4576101008083540402835291602001916111df565b820191906000526020600020905b8154815290600101906020018083116111c257829003601f168201915b50505050509550600360008b8152602001908152602001600020600a01549450600360008b8152602001908152602001600020600c0160009054906101000a900460ff169350600360008b8152602001908152602001600020600c0160019054906101000a900473ffffffffffffffffffffffffffffffffffffffff169250600360008b8152602001908152602001600020600d0160009054906101000a900473ffffffffffffffffffffffffffffffffffffffff169150600360008b8152602001908152602001600020600e0160009054906101000a900473ffffffffffffffffffffffffffffffffffffffff1690508888888888888888889850985098509850985098509850985098509193959799909294969850565b806001600f81111561130657fe5b60036000838152602001908152602001600020600c0160009054906101000a900460ff16600f81111561133557fe5b14151561134157600080fd5b6003600083815260200190815260200160002060030160009054906101000a900473ffffffffffffffffffffffffffffffffffffffff168073ffffffffffffffffffffffffffffffffffffffff163373ffffffffffffffffffffffffffffffffffffffff161415156113b257600080fd5b600260036000858152602001908152602001600020600c0160006101000a81548160ff0219169083600f8111156113e557fe5b02179055507fe51150d4889a6530d52aa491b0a2e428cd8d166005b17700b9b2b2ef2da437de836040518082815260200191505060405180910390a1505050565b600080600080606080606080600360008a8152602001908152602001600020600001549750600360008a8152602001908152602001600020600101549650600360008a815260200190815260200160002060020160009054906101000a900473ffffffffffffffffffffffffffffffffffffffff169550600360008a815260200190815260200160002060030160009054906101000a900473ffffffffffffffffffffffffffffffffffffffff169450600360008a81526020019081526020016000206004018054600181600116156101000203166002900480601f0160208091040260200160405190810160405280929190818152602001828054600181600116156101000203166002900480156115805780601f1061155557610100808354040283529160200191611580565b820191906000526020600020905b81548152906001019060200180831161156357829003601f168201915b50505050509350600360008a81526020019081526020016000206005018054600181600116156101000203166002900480601f0160208091040260200160405190810160405280929190818152602001828054600181600116156101000203166002900480156116315780601f1061160657610100808354040283529160200191611631565b820191906000526020600020905b81548152906001019060200180831161161457829003601f168201915b50505050509250600360008a81526020019081526020016000206006018054600181600116156101000203166002900480601f0160208091040260200160405190810160405280929190818152602001828054600181600116156101000203166002900480156116e25780601f106116b7576101008083540402835291602001916116e2565b820191906000526020600020905b8154815290600101906020018083116116c557829003601f168201915b50505050509150600360008a81526020019081526020016000206007018054600181600116156101000203166002900480601f0160208091040260200160405190810160405280929190818152602001828054600181600116156101000203166002900480156117935780601f1061176857610100808354040283529160200191611793565b820191906000526020600020905b81548152906001019060200180831161177657829003601f168201915b50505050509050878787878787878797509750975097509750975097509750919395975091939597565b80600a600f8111156117cb57fe5b60036000838152602001908152602001600020600c0160009054906101000a900460ff16600f8111156117fa57fe5b14151561180657600080fd5b60036000838152602001908152602001600020600c0160019054906101000a900473ffffffffffffffffffffffffffffffffffffffff168073ffffffffffffffffffffffffffffffffffffffff163373ffffffffffffffffffffffffffffffffffffffff1614151561187757600080fd5b600b60036000858152602001908152602001600020600c0160006101000a81548160ff0219169083600f8111156118aa57fe5b02179055507fb7347f8db2deb7283df6d70aee4850738ca3a5a319bd287c0de801554c06aae0836040518082815260200191505060405180910390a1505050565b806006600f8111156118f957fe5b60036000838152602001908152602001600020600c0160009054906101000a900460ff16600f81111561192857fe5b14151561193457600080fd5b60036000838152602001908152602001600020600c0160019054906101000a900473ffffffffffffffffffffffffffffffffffffffff168073ffffffffffffffffffffffffffffffffffffffff163373ffffffffffffffffffffffffffffffffffffffff161415156119a557600080fd5b600760036000858152602001908152602001600020600c0160006101000a81548160ff0219169083600f8111156119d857fe5b02179055507f07194730476fae1b265a3f34de11dce699c28d33385d364d1178e2a85f903309836040518082815260200191505060405180910390a1505050565b806007600f811115611a2757fe5b60036000838152602001908152602001600020600c0160009054906101000a900460ff16600f811115611a5657fe5b141515611a6257600080fd5b60036000838152602001908152602001600020600c0160019054906101000a900473ffffffffffffffffffffffffffffffffffffffff168073ffffffffffffffffffffffffffffffffffffffff163373ffffffffffffffffffffffffffffffffffffffff16141515611ad357600080fd5b600860036000858152602001908152602001600020600c0160006101000a81548160ff0219169083600f811115611b0657fe5b02179055507fed94ac560986fcba4c9b3204a742761ec4eec84623dd16c5b98e9112352fd48b836040518082815260200191505060405180910390a1505050565b806003600f811115611b5557fe5b60036000838152602001908152602001600020600c0160009054906101000a900460ff16600f811115611b8457fe5b141515611b9057600080fd5b6003600083815260200190815260200160002060030160009054906101000a900473ffffffffffffffffffffffffffffffffffffffff168073ffffffffffffffffffffffffffffffffffffffff163373ffffffffffffffffffffffffffffffffffffffff16141515611c0157600080fd5b600460036000858152602001908152602001600020600c0160006101000a81548160ff0219169083600f811115611c3457fe5b02179055507f89dcf503d39c20d7e0799b382c743e26fe9262753bfc6a1ab06b24ca2d3afd70836040518082815260200191505060405180910390a1505050565b806009600f811115611c8357fe5b60036000838152602001908152602001600020600c0160009054906101000a900460ff16600f811115611cb257fe5b141515611cbe57600080fd5b60036000838152602001908152602001600020600d0160009054906101000a900473ffffffffffffffffffffffffffffffffffffffff168073ffffffffffffffffffffffffffffffffffffffff163373ffffffffffffffffffffffffffffffffffffffff16141515611d2f57600080fd5b60036000848152602001908152602001600020600c0160019054906101000a900473ffffffffffffffffffffffffffffffffffffffff166003600085815260200190815260200160002060020160006101000a81548173ffffffffffffffffffffffffffffffffffffffff021916908373ffffffffffffffffffffffffffffffffffffffff160217905550600a60036000858152602001908152602001600020600c0160006101000a81548160ff0219169083600f811115611ded57fe5b02179055507f093e1cafb5d69da80b4b7bb5ba3fd1c73fccd9803f1f8f92dcaa7501b4e03012836040518082815260200191505060405180910390a1505050565b80600d600f811115611e3c57fe5b60036000838152602001908152602001600020600c0160009054906101000a900460ff16600f811115611e6b57fe5b141515611e7757600080fd5b60036000838152602001908152602001600020600b0154803410151515611e9d57600080fd5b60036000848152602001908152602001600020600b015460036000858152602001908152602001600020600c0160019054906101000a900473ffffffffffffffffffffffffffffffffffffffff16600080336003600089815260200190815260200160002060020160006101000a81548173ffffffffffffffffffffffffffffffffffffffff021916908373ffffffffffffffffffffffffffffffffffffffff1602179055503360036000898152602001908152602001600020600e0160006101000a81548173ffffffffffffffffffffffffffffffffffffffff021916908373ffffffffffffffffffffffffffffffffffffffff160217905550600e60036000898152602001908152602001600020600c0160006101000a81548160ff0219169083600f811115611fcb57fe5b02179055507f653d56639fee6b566a5c804764e9689de38645f0b733df89a36a1b7b42173dd8876040518082815260200191505060405180910390a183915081340390508273ffffffffffffffffffffffffffffffffffffffff166108fc829081150290604051600060405180830381858888f19350505050158015612055573d6000803e3d6000fd5b5050505050505050565b6002546003600089815260200190815260200160002060000181905550866003600089815260200190815260200160002060010181905550856003600089815260200190815260200160002060020160006101000a81548173ffffffffffffffffffffffffffffffffffffffff021916908373ffffffffffffffffffffffffffffffffffffffff160217905550856003600089815260200190815260200160002060030160006101000a81548173ffffffffffffffffffffffffffffffffffffffff021916908373ffffffffffffffffffffffffffffffffffffffff1602179055508460036000898152602001908152602001600020600401908051906020019061216b9291906126ad565b50836003600089815260200190815260200160002060050190805190602001906121969291906126ad565b50826003600089815260200190815260200160002060060190805190602001906121c19291906126ad565b50816003600089815260200190815260200160002060070190805190602001906121ec9291906126ad565b50806003600089815260200190815260200160002060090190805190602001906122179291906126ad565b50600060036000898152602001908152602001600020600c0160006101000a81548160ff0219169083600f81111561224b57fe5b0217905550600254870160036000898152602001908152602001600020600801819055506001600254016002819055507f8dcfd4ef84885445170cfb65b441c4e431e6aa02ac6e558af35a75dfedab3118876040518082815260200191505060405180910390a150505050505050565b806005600f8111156122c957fe5b60036000838152602001908152602001600020600c0160009054906101000a900460ff16600f8111156122f857fe5b14151561230457600080fd5b60036000838152602001908152602001600020600a015480341015151561232a57600080fd5b60036000848152602001908152602001600020600a01546003600085815260200190815260200160002060030160009054906101000a900473ffffffffffffffffffffffffffffffffffffffff16600080336003600089815260200190815260200160002060020160006101000a81548173ffffffffffffffffffffffffffffffffffffffff021916908373ffffffffffffffffffffffffffffffffffffffff1602179055503360036000898152602001908152602001600020600c0160016101000a81548173ffffffffffffffffffffffffffffffffffffffff021916908373ffffffffffffffffffffffffffffffffffffffff160217905550600660036000898152602001908152602001600020600c0160006101000a81548160ff0219169083600f81111561245857fe5b02179055506003600088815260200190815260200160002060030160009054906101000a900473ffffffffffffffffffffffffffffffffffffffff1673ffffffffffffffffffffffffffffffffffffffff166108fc600360008a8152602001908152602001600020600a01549081150290604051600060405180830381858888f193505050501580156124ef573d6000803e3d6000fd5b507f92f64ca637d023f354075a4be751b169c1a8a9ccb6d33cdd0cb3520543995727876040518082815260200191505060405180910390a183915081340390508273ffffffffffffffffffffffffffffffffffffffff166108fc829081150290604051600060405180830381858888f19350505050158015612575573d6000803e3d6000fd5b5050505050505050565b80600b600f81111561258d57fe5b60036000838152602001908152602001600020600c0160009054906101000a900460ff16600f8111156125bc57fe5b1415156125c857600080fd5b60036000838152602001908152602001600020600c0160019054906101000a900473ffffffffffffffffffffffffffffffffffffffff168073ffffffffffffffffffffffffffffffffffffffff163373ffffffffffffffffffffffffffffffffffffffff1614151561263957600080fd5b600c60036000858152602001908152602001600020600c0160006101000a81548160ff0219169083600f81111561266c57fe5b02179055507f90fb62fbf50805afb9ac92d09751c06a8e60c33bf136f96051838184438a3c59836040518082815260200191505060405180910390a1505050565b828054600181600116156101000203166002900490600052602060002090601f016020900481019282601f106126ee57805160ff191683800117855561271c565b8280016001018555821561271c579182015b8281111561271b578251825591602001919060010190612700565b5b509050612729919061272d565b5090565b61274f91905b8082111561274b576000816000905550600101612733565b5090565b905600a165627a7a7230582099980311abd4030c38b0a0c539f986c1e2cb8e5c32412f133f3d00774ee85a220029",
  "source": "pragma solidity ^0.4.24;\n// Define a contract 'Supplychain'\ncontract SupplyChain {\n\n  // Define 'owner'\n  address owner;\n\n  // Define a variable called 'upc' for Universal Product Code (UPC)\n  uint  upc;\n\n  // Define a variable called 'sku' for Stock Keeping Unit (SKU)\n  uint  sku;\n\n  // Define a public mapping 'items' that maps the UPC to an Item.\n  mapping (uint => Item) items;\n\n  // Define a public mapping 'itemsHistory' that maps the UPC to an array of TxHash, \n  // that track its journey through the supply chain -- to be sent from DApp.\n  mapping (uint => string[]) itemsHistory;  //TODO: need to implement, mayne not if front end is sending\n  \n  // Define enum 'State' with the following values:\n  enum State\n  { \n    MathReady,        \n    ArtReady,  \n    AnimReady,   \n    AudioReady,    \n    PrelimTestingComplete,\n    ForSale,\n    Sold,      \n    QAComplete,\n    ReleasedForReg,\n    EnteredRegulatory,\n    RegComplete,\n    ReleasedForMarketing,\n    MarketingComplete,\n    ReadyForRelease,\n    Purchased,\n    Installed\n    }\n\n  State constant defaultState = State.MathReady;\n\n  // Define a struct 'Item' with the following fields:\n  struct Item {\n    uint    sku;  // Stock Keeping Unit (SKU)\n    uint    upc; // Universal Product Code (UPC), generated by the Game Studio, goes on the package, can be verified by the Consumer\n    address ownerID;  // Metamask-Ethereum address of the current owner as the product moves through 8 stages\n    address originSlotTitleID; // Metamask-Ethereum address of the Game Studio\n    string  originGameStudioID; // Game Studio Name\n    string  originGameStudioInformation;  // Game Studio Information\n    string  originGameStudioAddress; // Game Studio Address\n    string  originGameStudioEmailContact;  // Game Email Address\n    uint    productID;  // Product ID potentially a combination of upc + sku\n    string  productNotes; // Product Notes\n    uint    productPrice; // Product Price\n    uint    finalCasinoPrice;\n    State   itemState;  // Product State as represented in the enum above\n    address slotManufacturerID;  // Metamask-Ethereum address of the Distributor\n    address regulatoryID; // Metamask-Ethereum address of the Retailer\n    address casinoID; // Metamask-Ethereum address of the Consumer\n  }\n\n  // Define 16 events with the same 816 state values and accept 'upc' as input argument\n  event MathReady(uint upc);\n  event ArtReady(uint upc);\n  event AnimReady(uint upc);\n  event AudioReady(uint upc);\n  event PrelimTestingComplete(uint upc);\n  event ForSale(uint upc);\n  event Sold(uint upc);\n  event QATested(uint upc);\n  event ReleasedForReg(uint upc);\n  event EnteredReg(uint upc);\n  event RegulatoryComplete(uint upc);\n  event ReleasedForMarketing(uint upc);\n  event MarketingComplete(uint upc); \n  event ReadyForRelease(uint upc);\n  event Purchased(uint upc);\n  event Installed(uint upc);\n\n    // Define a modifer that checks to see if item has not previously been created\n  modifier doesNotExist(uint _upc) {\n    require(items[_upc].ownerID == address(0));\n    _;\n  }\n\n  // Define a modifer that checks to see if msg.sender == owner of the contract\n  modifier onlyOwner() {\n    require(msg.sender == owner);\n    _;\n  }\n\n  // Define a modifer that verifies the Caller\n  modifier verifyCaller(address _address) {\n    require(msg.sender == _address); \n    _;\n  }\n\n  // Define a modifier that checks if the paid amount is sufficient to cover the price\n  modifier paidEnough(uint _price) { \n    require(msg.value >= _price);\n    _;\n  }\n\n  // Define a modifier that checks the price and refunds the remaining balance  \n  modifier checkValue(uint _productPrice, address _transferAddress ) {\n    _;\n    uint _price = _productPrice;\n    uint amountToReturn = msg.value - _price;\n    _transferAddress.transfer(amountToReturn);\n  }\n\n  // Define a modifier that checks if an item.state of a upc is MathReady\n  modifier mathDesigned(uint _upc) {\n    require(items[_upc].itemState == State.MathReady);\n    _;\n  }\n\n  // Define a modifier that checks if an item.state of a upc is ArtReady\n  modifier artDesigned(uint _upc) {\n    require(items[_upc].itemState == State.ArtReady);\n    _;\n  }\n\n  // Define a modifier that checks if an item.state of a upc is AnimReady \n  modifier animDesigned(uint _upc) {\n    require(items[_upc].itemState == State.AnimReady);\n    _;\n  }\n\n  // Define a modifier that checks if an item.state of a upc is AudioReady \n  modifier audioDesigned(uint _upc) {\n    require(items[_upc].itemState == State.AudioReady);\n    _;\n  }\n\n  // Define a modifier that checks if an item.state of a upc is PrelimTestingComplete \n  modifier prelimTestingComplete(uint _upc) {\n    require(items[_upc].itemState == State.PrelimTestingComplete);\n    _;\n  }\n\n  // Define a modifier that checks if an item.state of a upc is ForSale\n  modifier forSale(uint _upc) {\n    require(items[_upc].itemState == State.ForSale);\n    _;\n  }\n\n  // Define a modifier that checks if an item.state of a upc is Sold\n  modifier sold(uint _upc) {\n    require(items[_upc].itemState == State.Sold);\n    _;\n  }\n\n  // Define a modifier that checks if an item.state of a upc is SoQACompleteld\n  modifier qaTested(uint _upc) {\n    require(items[_upc].itemState == State.QAComplete);\n    _;\n  }\n\n  // Define a modifier that checks if an item.state of a upc is ReleasedForReg\n  modifier releasedForReg(uint _upc) {\n    require(items[_upc].itemState == State.ReleasedForReg);\n    _;\n  }\n\n  // Define a modifier that checks if an item.state of a upc is EnteredRegulatory\n  modifier enteredRegulatory(uint _upc) {\n    require(items[_upc].itemState == State.EnteredRegulatory);\n    _;\n  }  \n\n  // Define a modifier that checks if an item.state of a upc is RegComplete\n  modifier regComplete(uint _upc) {\n    require(items[_upc].itemState == State.RegComplete);\n    _;\n  }\n\n   // Define a modifier that checks if an item.state of a upc is ReleasedForMarketing\n  modifier releasedForMarketing(uint _upc) {\n    require(items[_upc].itemState == State.ReleasedForMarketing);\n    _;\n  }\n\n  // Define a modifier that checks if an item.state of a upc is MarketingComplete\n  modifier marketingComplete(uint _upc) {\n    require(items[_upc].itemState == State.MarketingComplete);\n    _;\n  }\n\n  // Define a modifier that checks if an item.state of a upc is ReadyForRelease\n  modifier readyForRelease(uint _upc) {\n    require(items[_upc].itemState == State.ReadyForRelease);\n    _;\n  }\n  \n  // Define a modifier that checks if an item.state of a upc is Purchased\n  modifier purchased(uint _upc) {\n      require(items[_upc].itemState == State.Purchased);\n    _;\n  }\n\n  // In the constructor set 'owner' to the address that instantiated the contract\n  // and set 'sku' to 1\n  // and set 'upc' to 1\n  constructor() public payable {\n    owner = msg.sender;\n    sku = 1;\n    upc = 1;\n  }\n\n  // Define a function 'kill' if required\n  function kill() public {\n    if (msg.sender == owner) {\n      selfdestruct(owner);\n    }\n  }\n\n  // Define a function 'designMath' that allows a game studio to mark an item 'MathReady'\n  function designMath(uint _upc, address _originSlotTitleID, string _originGameStudioID, string _originGameStudioInformation, string  _originGameStudioAddress, string  _originGameStudioEmailContact, string  _productNotes) public \n\n    {\n    // Add the new item as part of MathReady\n    items[_upc].sku = sku;\n    items[_upc].upc = _upc;\n    items[_upc].ownerID = _originSlotTitleID;\n    items[_upc].originSlotTitleID = _originSlotTitleID;\n    items[_upc].originGameStudioID = _originGameStudioID;\n    items[_upc].originGameStudioInformation = _originGameStudioInformation;\n    items[_upc].originGameStudioAddress = _originGameStudioAddress;\n    items[_upc].originGameStudioEmailContact =  _originGameStudioEmailContact;\n    items[_upc].productNotes = _productNotes;\n    items[_upc].itemState = State.MathReady;\n    items[_upc].productID = _upc+sku;\n    // Increment sku\n    sku = sku + 1;\n    // Emit the appropriate event\n    emit MathReady(_upc);\n  }\n\n  // Define a function 'designArt' that allows a game studio to mark an item 'ArtReady'\n  function designArt(uint _upc) public \n  // Call modifier to check if upc has passed previous supply chain stage\n  mathDesigned(_upc)\n  // Call modifier to verify caller of this function\n  verifyCaller(items[_upc].originSlotTitleID)\n  {\n    // Update the appropriate fields\n    items[_upc].itemState = State.ArtReady;\n    // Emit the appropriate event\n    emit ArtReady(_upc);\n  }\n\n  // Define a function 'designAnim' that allows a game studio to mark an item 'AnimReady'\n  function designAnim(uint _upc) public \n  // Call modifier to check if upc has passed previous supply chain stage\n  artDesigned(_upc)\n  // Call modifier to verify caller of this function\n  verifyCaller(items[_upc].originSlotTitleID)\n  {\n    // Update the appropriate fields\n    items[_upc].itemState = State.AnimReady;\n    // Emit the appropriate event\n    emit AnimReady(_upc);\n  }\n\n  // Define a function 'designAudio' that allows a game studio to mark an item 'AudioReady'\n  function designAudio(uint _upc) public \n  // Call modifier to check if upc has passed previous supply chain stage\n  animDesigned(_upc)\n  // Call modifier to verify caller of this function\n  verifyCaller(items[_upc].originSlotTitleID)\n  {\n    // Update the appropriate fields\n    items[_upc].itemState = State.AudioReady;\n    // Emit the appropriate event\n    emit AudioReady(_upc);\n  }\n\n  // Define a function 'conductPrelimTesting' that allows a game studio to mark an item 'PrelimTestingComplete'\n  function conductPrelimTesting(uint _upc) public \n  // Call modifier to check if upc has passed previous supply chain stage\n  audioDesigned(_upc)\n  // Call modifier to verify caller of this function\n  verifyCaller(items[_upc].originSlotTitleID)\n  {\n    // Update the appropriate fields\n    items[_upc].itemState = State.PrelimTestingComplete;\n    // Emit the appropriate event\n    emit PrelimTestingComplete(_upc);\n  }\n\n  // Define a function 'sellItem' that allows a game studio to mark an item 'ForSale'\n  function sellItem(uint _upc, uint _price) public \n  // Call modifier to check if upc has passed previous supply chain stage\n  prelimTestingComplete(_upc)\n  // Call modifier to verify caller of this function\n  verifyCaller(items[_upc].originSlotTitleID)\n  {\n    // Update the appropriate fields\n    items[_upc].itemState = State.ForSale;\n    items[_upc].productPrice = _price;\n    // Emit the appropriate event\n    emit ForSale(_upc);\n  }\n\n  // Define a function 'buyItem' that allows a slot manufacturer to mark an item 'Sold'\n  function buyItem(uint _upc) public payable \n    // Call modifier to check if upc has passed previous supply chain stage\n    forSale(_upc)\n    // Call modifer to check if buyer has paid enough\n    paidEnough(items[_upc].productPrice)\n    // Call modifer to send any excess ether back to buyer\n    checkValue(items[_upc].productPrice, items[_upc].originSlotTitleID)\n    {    \n    // Update the appropriate fields - ownerID, slotManufacturerID, itemState    \n    items[_upc].ownerID = msg.sender;\n    items[_upc].slotManufacturerID = msg.sender;\n    items[_upc].itemState = State.Sold;  \n    // Transfer money to game studio\n    items[_upc].originSlotTitleID.transfer(items[_upc].productPrice);    \n    // emit the appropriate event\n    emit Sold(_upc);\n  }\n\n  // Define a function 'conductQA' that allows a game studio to mark an item 'QAComplete'\n  function conductQA(uint _upc) public \n  // Call modifier to check if upc has passed previous supply chain stage\n  sold(_upc)\n  // Call modifier to verify caller of this function\n  verifyCaller(items[_upc].slotManufacturerID)\n  {\n    // Update the appropriate fields\n    items[_upc].itemState = State.QAComplete;\n    // Emit the appropriate event\n    emit QATested(_upc);\n  }\n\n  // Define a function 'releaseForReg' that allows a slot manufacturer to mark an item 'ReleasedForReg'\n  function releaseForReg(uint _upc) public \n  // Call modifier to check if upc has passed previous supply chain stage\n  qaTested(_upc)\n  // Call modifier to verify caller of this function\n  verifyCaller(items[_upc].slotManufacturerID)\n  {\n    // Update the appropriate fields\n    items[_upc].itemState = State.ReleasedForReg;\n    // Emit the appropriate event\n    emit ReleasedForReg(_upc);\n  }\n\n  // Define a function 'enterRegulatory' that allows a regulatory agency to mark an item 'EnteredRegulatory'\n  function enterRegulatory(uint _upc) public \n  // Call modifier to check if upc has passed previous supply chain stage\n  releasedForReg(_upc)\n  {\n    // Update the appropriate fields\n    items[_upc].ownerID = msg.sender;\n    items[_upc].regulatoryID = msg.sender;\n    items[_upc].itemState = State.EnteredRegulatory;\n    // Emit the appropriate event\n    emit EnteredReg(_upc);\n  }\n\n  // Define a function 'exitRegulatory' that allows a regulatory agency to mark an item 'RegComplete'\n  function exitRegulatory(uint _upc) public\n  // Call modifier to check if upc has passed previous supply chain stage\n  enteredRegulatory(_upc)\n  // Call modifier to verify caller of this function\n  verifyCaller(items[_upc].regulatoryID)\n  {\n    // Update the appropriate fields\n    items[_upc].ownerID = items[_upc].slotManufacturerID;\n    items[_upc].itemState = State.RegComplete;\n    // Emit the appropriate event\n    emit RegulatoryComplete(_upc);\n  }\n\n  // Define a function 'releaseForMarketing' that allows a slot manufacturer to mark an item 'ReleasedForMarketing'\n  function releaseForMarketing(uint _upc) public\n  // Call modifier to check if upc has passed previous supply chain stage\n  regComplete(_upc)\n  // Call modifier to verify caller of this function\n  verifyCaller(items[_upc].slotManufacturerID)\n  {    \n    // Update the appropriate fields    \n    items[_upc].itemState = State.ReleasedForMarketing;\n    // Emit the appropriate event\n    emit ReleasedForMarketing(_upc);\n  }\n\n  // Define a function 'exitMarketing' that allows a slot manufacturer to mark an item 'MarketingComplete'\n  function exitMarketing(uint _upc) public\n  // Call modifier to check if upc has passed previous supply chain stage\n  releasedForMarketing(_upc)\n  // Call modifier to verify caller of this function\n  verifyCaller(items[_upc].slotManufacturerID)\n  {\n    // Update the appropriate fields\n    items[_upc].itemState = State.MarketingComplete;\n    // Emit the appropriate event\n    emit MarketingComplete(_upc);\n  } \n\n  // Define a function 'moveForRelease' that allows the consumer to mark an item 'ReadyForRelease'\n  // Use the above modifiers to check if the item is received\n  function moveForRelease(uint _upc, uint _price) public \n    // Call modifier to check if upc has passed previous supply chain stage\n    marketingComplete(_upc)\n    {\n    // Update the appropriate fields - ownerID, casinoID, itemState\n    items[_upc].itemState = State.ReadyForRelease;\n    items[_upc].finalCasinoPrice = _price;\n    // Emit the appropriate event\n    emit ReadyForRelease(_upc);\n  }\n\n  // Define a function 'purchaseItem' that allows the consumer to mark an item 'Purchased'\n  // Use the above modifiers to check if the item is received\n  function purchaseItem(uint _upc) public payable \n    // Call modifier to check if upc has passed previous supply chain stage\n    readyForRelease(_upc)\n    // Call modifer to check if buyer has paid enough\n    paidEnough(items[_upc].finalCasinoPrice)\n    // Call modifer to send any excess ether back to buyer\n    checkValue(items[_upc].finalCasinoPrice, items[_upc].slotManufacturerID)\n    // Access Control List enforced by calling Smart Contract / DApp\n    {\n    // Update the appropriate fields - ownerID, casinoID, itemState\n    items[_upc].ownerID = msg.sender;\n    items[_upc].casinoID = msg.sender;\n    items[_upc].itemState = State.Purchased;\n    // Emit the appropriate event\n    emit Purchased(_upc);\n  }\n\n  // Define a function 'installGame' that allows a slot manufacturer to mark an item 'Installed'\n  function installGame(uint _upc) public\n  // Call modifier to check if upc has passed previous supply chain stage\n  purchased(_upc)\n  // Call modifier to verify caller of this function\n  verifyCaller(items[_upc].casinoID)\n  {\n    // Update the appropriate fields\n    items[_upc].itemState = State.Installed;\n    // Emit the appropriate event\n    emit Installed(_upc);\n  }\n \n  // Define a function 'fetchItemBufferOne' that fetches the data\n  function fetchItemBufferOne(uint _upc) public view returns \n  (\n  uint    itemSKU,\n  uint    itemUPC,\n  address ownerID,\n  address originSlotTitleID,\n  string  originGameStudioID,\n  string  originGameStudioInformation,\n  string  originGameStudioAddress,\n  string  originGameStudioEmailContact\n  ) \n  {\n  // Assign values to the 8 parameters\n  itemSKU = items[_upc].sku;\n  itemUPC = items[_upc].upc;\n  ownerID = items[_upc].ownerID;\n  originSlotTitleID = items[_upc].originSlotTitleID;\n  originGameStudioID = items[_upc].originGameStudioID;\n  originGameStudioInformation = items[_upc].originGameStudioInformation;\n  originGameStudioAddress = items[_upc].originGameStudioAddress;\n  originGameStudioEmailContact = items[_upc].originGameStudioEmailContact;\n\n  return \n  (\n  itemSKU,\n  itemUPC,\n  ownerID,\n  originSlotTitleID,\n  originGameStudioID,\n  originGameStudioInformation,\n  originGameStudioAddress,\n  originGameStudioEmailContact\n  );\n  }\n\n  // Define a function 'fetchItemBufferTwo' that fetches the data\n  function fetchItemBufferTwo(uint _upc) public view returns \n  (\n  uint    itemSKU,\n  uint    itemUPC,\n  uint    productID,\n  string  productNotes,\n  uint    productPrice,\n  State    itemState,\n  address slotManufacturerID,\n  address regulatoryID,\n  address casinoID\n  ) \n  {\n    // Assign values to the 9 parameters\n    itemSKU = items[_upc].sku;\n    itemUPC = items[_upc].upc;\n    productID = items[_upc].productID;\n    productNotes = items[_upc].productNotes;\n    productPrice = items[_upc].productPrice;\n    itemState = items[_upc].itemState;\n    slotManufacturerID = items[_upc].slotManufacturerID;\n    regulatoryID = items[_upc].regulatoryID;\n    casinoID = items[_upc].casinoID;\n    \n  return \n  (\n  itemSKU,\n  itemUPC,\n  productID,\n  productNotes,\n  productPrice,\n  itemState,\n  slotManufacturerID,\n  regulatoryID,\n  casinoID\n  );\n  }\n}",
  "sourcePath": "/Users/joeyberger/Desktop/Udacity/Blockchain Nanodegree/GitHub Repos/SlotSupplyChainSolution/project-6/contracts/slottitlebase/SupplyChain.sol",
  "compiler": {
    "name": "solc",
    "version": "0.4.24+commit.e67f0147.Emscripten.clang"
  },
  "schemaVersion": "2.0.1",
  "updatedAt": "2019-02-19T04:58:18.770Z"
}